{
  "contractName": "LipToken",
  "abi": [
    {
      "inputs": [
        {
          "internalType": "string",
          "name": "_name",
          "type": "string"
        },
        {
          "internalType": "string",
          "name": "_symbol",
          "type": "string"
        }
      ],
      "stateMutability": "nonpayable",
      "type": "constructor"
    },
    {
      "anonymous": false,
      "inputs": [
        {
          "indexed": true,
          "internalType": "address",
          "name": "owner",
          "type": "address"
        },
        {
          "indexed": true,
          "internalType": "address",
          "name": "approved",
          "type": "address"
        },
        {
          "indexed": true,
          "internalType": "uint256",
          "name": "tokenId",
          "type": "uint256"
        }
      ],
      "name": "Approval",
      "type": "event"
    },
    {
      "anonymous": false,
      "inputs": [
        {
          "indexed": true,
          "internalType": "address",
          "name": "owner",
          "type": "address"
        },
        {
          "indexed": true,
          "internalType": "address",
          "name": "operator",
          "type": "address"
        },
        {
          "indexed": false,
          "internalType": "bool",
          "name": "approved",
          "type": "bool"
        }
      ],
      "name": "ApprovalForAll",
      "type": "event"
    },
    {
      "anonymous": false,
      "inputs": [
        {
          "indexed": true,
          "internalType": "address",
          "name": "owner",
          "type": "address"
        },
        {
          "indexed": false,
          "internalType": "uint256",
          "name": "id",
          "type": "uint256"
        },
        {
          "indexed": false,
          "internalType": "uint256",
          "name": "dna",
          "type": "uint256"
        }
      ],
      "name": "NewLip",
      "type": "event"
    },
    {
      "anonymous": false,
      "inputs": [
        {
          "indexed": true,
          "internalType": "address",
          "name": "previousOwner",
          "type": "address"
        },
        {
          "indexed": true,
          "internalType": "address",
          "name": "newOwner",
          "type": "address"
        }
      ],
      "name": "OwnershipTransferred",
      "type": "event"
    },
    {
      "anonymous": false,
      "inputs": [
        {
          "indexed": true,
          "internalType": "address",
          "name": "from",
          "type": "address"
        },
        {
          "indexed": true,
          "internalType": "address",
          "name": "to",
          "type": "address"
        },
        {
          "indexed": true,
          "internalType": "uint256",
          "name": "tokenId",
          "type": "uint256"
        }
      ],
      "name": "Transfer",
      "type": "event"
    },
    {
      "inputs": [
        {
          "internalType": "address",
          "name": "to",
          "type": "address"
        },
        {
          "internalType": "uint256",
          "name": "tokenId",
          "type": "uint256"
        }
      ],
      "name": "approve",
      "outputs": [],
      "stateMutability": "nonpayable",
      "type": "function"
    },
    {
      "inputs": [
        {
          "internalType": "address",
          "name": "owner",
          "type": "address"
        }
      ],
      "name": "balanceOf",
      "outputs": [
        {
          "internalType": "uint256",
          "name": "",
          "type": "uint256"
        }
      ],
      "stateMutability": "view",
      "type": "function",
      "constant": true
    },
    {
      "inputs": [
        {
          "internalType": "uint256",
          "name": "tokenId",
          "type": "uint256"
        }
      ],
      "name": "getApproved",
      "outputs": [
        {
          "internalType": "address",
          "name": "",
          "type": "address"
        }
      ],
      "stateMutability": "view",
      "type": "function",
      "constant": true
    },
    {
      "inputs": [
        {
          "internalType": "address",
          "name": "owner",
          "type": "address"
        },
        {
          "internalType": "address",
          "name": "operator",
          "type": "address"
        }
      ],
      "name": "isApprovedForAll",
      "outputs": [
        {
          "internalType": "bool",
          "name": "",
          "type": "bool"
        }
      ],
      "stateMutability": "view",
      "type": "function",
      "constant": true
    },
    {
      "inputs": [
        {
          "internalType": "uint256",
          "name": "",
          "type": "uint256"
        }
      ],
      "name": "lips",
      "outputs": [
        {
          "internalType": "string",
          "name": "name",
          "type": "string"
        },
        {
          "internalType": "uint256",
          "name": "id",
          "type": "uint256"
        },
        {
          "internalType": "uint256",
          "name": "dna",
          "type": "uint256"
        },
        {
          "internalType": "uint8",
          "name": "level",
          "type": "uint8"
        },
        {
          "internalType": "uint8",
          "name": "rarity",
          "type": "uint8"
        }
      ],
      "stateMutability": "view",
      "type": "function",
      "constant": true
    },
    {
      "inputs": [],
      "name": "name",
      "outputs": [
        {
          "internalType": "string",
          "name": "",
          "type": "string"
        }
      ],
      "stateMutability": "view",
      "type": "function",
      "constant": true
    },
    {
      "inputs": [],
      "name": "owner",
      "outputs": [
        {
          "internalType": "address",
          "name": "",
          "type": "address"
        }
      ],
      "stateMutability": "view",
      "type": "function",
      "constant": true
    },
    {
      "inputs": [
        {
          "internalType": "uint256",
          "name": "tokenId",
          "type": "uint256"
        }
      ],
      "name": "ownerOf",
      "outputs": [
        {
          "internalType": "address",
          "name": "",
          "type": "address"
        }
      ],
      "stateMutability": "view",
      "type": "function",
      "constant": true
    },
    {
      "inputs": [],
      "name": "renounceOwnership",
      "outputs": [],
      "stateMutability": "nonpayable",
      "type": "function"
    },
    {
      "inputs": [
        {
          "internalType": "address",
          "name": "from",
          "type": "address"
        },
        {
          "internalType": "address",
          "name": "to",
          "type": "address"
        },
        {
          "internalType": "uint256",
          "name": "tokenId",
          "type": "uint256"
        }
      ],
      "name": "safeTransferFrom",
      "outputs": [],
      "stateMutability": "nonpayable",
      "type": "function"
    },
    {
      "inputs": [
        {
          "internalType": "address",
          "name": "from",
          "type": "address"
        },
        {
          "internalType": "address",
          "name": "to",
          "type": "address"
        },
        {
          "internalType": "uint256",
          "name": "tokenId",
          "type": "uint256"
        },
        {
          "internalType": "bytes",
          "name": "data",
          "type": "bytes"
        }
      ],
      "name": "safeTransferFrom",
      "outputs": [],
      "stateMutability": "nonpayable",
      "type": "function"
    },
    {
      "inputs": [
        {
          "internalType": "address",
          "name": "operator",
          "type": "address"
        },
        {
          "internalType": "bool",
          "name": "approved",
          "type": "bool"
        }
      ],
      "name": "setApprovalForAll",
      "outputs": [],
      "stateMutability": "nonpayable",
      "type": "function"
    },
    {
      "inputs": [
        {
          "internalType": "bytes4",
          "name": "interfaceId",
          "type": "bytes4"
        }
      ],
      "name": "supportsInterface",
      "outputs": [
        {
          "internalType": "bool",
          "name": "",
          "type": "bool"
        }
      ],
      "stateMutability": "view",
      "type": "function",
      "constant": true
    },
    {
      "inputs": [],
      "name": "symbol",
      "outputs": [
        {
          "internalType": "string",
          "name": "",
          "type": "string"
        }
      ],
      "stateMutability": "view",
      "type": "function",
      "constant": true
    },
    {
      "inputs": [
        {
          "internalType": "uint256",
          "name": "tokenId",
          "type": "uint256"
        }
      ],
      "name": "tokenURI",
      "outputs": [
        {
          "internalType": "string",
          "name": "",
          "type": "string"
        }
      ],
      "stateMutability": "view",
      "type": "function",
      "constant": true
    },
    {
      "inputs": [
        {
          "internalType": "address",
          "name": "from",
          "type": "address"
        },
        {
          "internalType": "address",
          "name": "to",
          "type": "address"
        },
        {
          "internalType": "uint256",
          "name": "tokenId",
          "type": "uint256"
        }
      ],
      "name": "transferFrom",
      "outputs": [],
      "stateMutability": "nonpayable",
      "type": "function"
    },
    {
      "inputs": [
        {
          "internalType": "address",
          "name": "newOwner",
          "type": "address"
        }
      ],
      "name": "transferOwnership",
      "outputs": [],
      "stateMutability": "nonpayable",
      "type": "function"
    },
    {
      "inputs": [],
      "name": "getFeeValue",
      "outputs": [
        {
          "internalType": "uint256",
          "name": "",
          "type": "uint256"
        }
      ],
      "stateMutability": "view",
      "type": "function",
      "constant": true
    },
    {
      "inputs": [],
      "name": "getFeeLevelUpValue",
      "outputs": [
        {
          "internalType": "uint256",
          "name": "",
          "type": "uint256"
        }
      ],
      "stateMutability": "view",
      "type": "function",
      "constant": true
    },
    {
      "inputs": [
        {
          "internalType": "uint256",
          "name": "_fee",
          "type": "uint256"
        }
      ],
      "name": "updateFee",
      "outputs": [],
      "stateMutability": "nonpayable",
      "type": "function"
    },
    {
      "inputs": [],
      "name": "withdraw",
      "outputs": [],
      "stateMutability": "payable",
      "type": "function",
      "payable": true
    },
    {
      "inputs": [
        {
          "internalType": "string",
          "name": "_name",
          "type": "string"
        }
      ],
      "name": "createRandomLip",
      "outputs": [],
      "stateMutability": "payable",
      "type": "function",
      "payable": true
    },
    {
      "inputs": [],
      "name": "getLips",
      "outputs": [
        {
          "components": [
            {
              "internalType": "string",
              "name": "name",
              "type": "string"
            },
            {
              "internalType": "uint256",
              "name": "id",
              "type": "uint256"
            },
            {
              "internalType": "uint256",
              "name": "dna",
              "type": "uint256"
            },
            {
              "internalType": "uint8",
              "name": "level",
              "type": "uint8"
            },
            {
              "internalType": "uint8",
              "name": "rarity",
              "type": "uint8"
            }
          ],
          "internalType": "struct LipToken.Lip[]",
          "name": "",
          "type": "tuple[]"
        }
      ],
      "stateMutability": "view",
      "type": "function",
      "constant": true
    },
    {
      "inputs": [],
      "name": "moneySmartContract",
      "outputs": [
        {
          "internalType": "uint256",
          "name": "",
          "type": "uint256"
        }
      ],
      "stateMutability": "view",
      "type": "function",
      "constant": true
    },
    {
      "inputs": [],
      "name": "addressSmartContract",
      "outputs": [
        {
          "internalType": "address",
          "name": "",
          "type": "address"
        }
      ],
      "stateMutability": "view",
      "type": "function",
      "constant": true
    },
    {
      "inputs": [
        {
          "internalType": "address",
          "name": "_owner",
          "type": "address"
        }
      ],
      "name": "getOwnerLips",
      "outputs": [
        {
          "components": [
            {
              "internalType": "string",
              "name": "name",
              "type": "string"
            },
            {
              "internalType": "uint256",
              "name": "id",
              "type": "uint256"
            },
            {
              "internalType": "uint256",
              "name": "dna",
              "type": "uint256"
            },
            {
              "internalType": "uint8",
              "name": "level",
              "type": "uint8"
            },
            {
              "internalType": "uint8",
              "name": "rarity",
              "type": "uint8"
            }
          ],
          "internalType": "struct LipToken.Lip[]",
          "name": "",
          "type": "tuple[]"
        }
      ],
      "stateMutability": "view",
      "type": "function",
      "constant": true
    },
    {
      "inputs": [
        {
          "internalType": "uint256",
          "name": "_lipId",
          "type": "uint256"
        }
      ],
      "name": "levelUp",
      "outputs": [],
      "stateMutability": "payable",
      "type": "function",
      "payable": true
    }
  ],
  "bytecode": "0x6080604052662386f26fc100006008556601c6bf526340006009553480156200002757600080fd5b50604051620023dc380380620023dc8339810160408190526200004a916200024d565b81518290829062000063906000906020850190620000f4565b50805162000079906001906020840190620000f4565b50505062000096620000906200009e60201b60201c565b620000a2565b505062000307565b3390565b600680546001600160a01b038381166001600160a01b0319831681179093556040519116919082907f8be0079c531659141344cd1fd0a4f28419497f9722a3daafe3b4186f6b6457e090600090a35050565b8280546200010290620002b4565b90600052602060002090601f01602090048101928262000126576000855562000171565b82601f106200014157805160ff191683800117855562000171565b8280016001018555821562000171579182015b828111156200017157825182559160200191906001019062000154565b506200017f92915062000183565b5090565b5b808211156200017f576000815560010162000184565b600082601f830112620001ab578081fd5b81516001600160401b0380821115620001c857620001c8620002f1565b604051601f8301601f19908116603f01168101908282118183101715620001f357620001f3620002f1565b816040528381526020925086838588010111156200020f578485fd5b8491505b8382101562000232578582018301518183018401529082019062000213565b838211156200024357848385830101525b9695505050505050565b6000806040838503121562000260578182fd5b82516001600160401b038082111562000277578384fd5b62000285868387016200019a565b935060208501519150808211156200029b578283fd5b50620002aa858286016200019a565b9150509250929050565b600281046001821680620002c957607f821691505b60208210811415620002eb57634e487b7160e01b600052602260045260246000fd5b50919050565b634e487b7160e01b600052604160045260246000fd5b6120c580620003176000396000f3fe60806040526004361061019c5760003560e01c806383b5daf7116100ec578063b717c9ec1161008a578063c2f5168a11610064578063c2f5168a14610454578063c87b56dd14610469578063e985e9c514610489578063f2fde38b146104a95761019c565b8063b717c9ec1461040a578063b88d4fde1461041f578063bd67d2381461043f5761019c565b80639012c4a8116100c65780639012c4a8146103a057806395d89b41146103c057806399470ee6146103d5578063a22cb465146103ea5761019c565b806383b5daf7146103495780638c0b9c541461036b5780638da5cb5b1461038b5761019c565b80633ccfd60b116101595780636352211e116101335780636352211e146102d4578063698d640c146102f457806370a0823114610307578063715018a6146103345761019c565b80633ccfd60b1461027b57806342842e0e146102835780635ec163db146102a35761019c565b806301ffc9a7146101a157806306fdde03146101d7578063081812fc146101f9578063095ea7b3146102265780630ce90ec21461024857806323b872dd1461025b575b600080fd5b3480156101ad57600080fd5b506101c16101bc3660046119bb565b6104c9565b6040516101ce9190611bb8565b60405180910390f35b3480156101e357600080fd5b506101ec610511565b6040516101ce9190611bc3565b34801561020557600080fd5b50610219610214366004611a39565b6105a3565b6040516101ce9190611acc565b34801561023257600080fd5b50610246610241366004611992565b6105ca565b005b610246610256366004611a39565b61066b565b34801561026757600080fd5b506102466102763660046118a4565b6106f0565b610246610728565b34801561028f57600080fd5b5061024661029e3660046118a4565b610776565b3480156102af57600080fd5b506102c36102be366004611a39565b610791565b6040516101ce959493929190611bd6565b3480156102e057600080fd5b506102196102ef366004611a39565b610867565b6102466103023660046119f3565b61089b565b34801561031357600080fd5b50610327610322366004611858565b6108b6565b6040516101ce9190611f74565b34801561034057600080fd5b506102466108fa565b34801561035557600080fd5b5061035e61090e565b6040516101ce9190611b1d565b34801561037757600080fd5b5061035e610386366004611858565b610a34565b34801561039757600080fd5b50610219610c26565b3480156103ac57600080fd5b506102466103bb366004611a39565b610c35565b3480156103cc57600080fd5b506101ec610c42565b3480156103e157600080fd5b50610327610c51565b3480156103f657600080fd5b50610246610405366004611958565b610c55565b34801561041657600080fd5b50610327610c67565b34801561042b57600080fd5b5061024661043a3660046118df565b610c6d565b34801561044b57600080fd5b50610327610cac565b34801561046057600080fd5b50610219610cb2565b34801561047557600080fd5b506101ec610484366004611a39565b610cb6565b34801561049557600080fd5b506101c16104a4366004611872565b610d1d565b3480156104b557600080fd5b506102466104c4366004611858565b610d4b565b60006001600160e01b031982166380ac58cd60e01b14806104fa57506001600160e01b03198216635b5e139f60e01b145b80610509575061050982610d82565b90505b919050565b60606000805461052090611fb7565b80601f016020809104026020016040519081016040528092919081815260200182805461054c90611fb7565b80156105995780601f1061056e57610100808354040283529160200191610599565b820191906000526020600020905b81548152906001019060200180831161057c57829003601f168201915b5050505050905090565b60006105ae82610d9b565b506000908152600460205260409020546001600160a01b031690565b60006105d582610867565b9050806001600160a01b0316836001600160a01b031614156106125760405162461bcd60e51b815260040161060990611ed6565b60405180910390fd5b806001600160a01b0316610624610dc0565b6001600160a01b031614806106405750610640816104a4610dc0565b61065c5760405162461bcd60e51b815260040161060990611f17565b6106668383610dc4565b505050565b3361067582610867565b6001600160a01b03161461068857600080fd5b6000600a82815481106106ab57634e487b7160e01b600052603260045260246000fd5b6000918252602082206003600490920201908101805491935060ff909116916106d38361200d565b91906101000a81548160ff021916908360ff160217905550505050565b6107016106fb610dc0565b82610e32565b61071d5760405162461bcd60e51b815260040161060990611c10565b610666838383610e91565b610730610fce565b600061073a610c26565b6040519091506001600160a01b038216904780156108fc02916000818181858888f19350505050158015610772573d6000803e3d6000fd5b5050565b61066683838360405180602001604052806000815250610c6d565b600a81815481106107a157600080fd5b90600052602060002090600402016000915090508060000180546107c490611fb7565b80601f01602080910402602001604051908101604052809291908181526020018280546107f090611fb7565b801561083d5780601f106108125761010080835404028352916020019161083d565b820191906000526020600020905b81548152906001019060200180831161082057829003601f168201915b50505050600183015460028401546003909401549293909290915060ff8082169161010090041685565b6000806108738361100d565b90506001600160a01b0381166105095760405162461bcd60e51b815260040161060990611e9f565b6008543410156108aa57600080fd5b6108b381611028565b50565b60006001600160a01b0382166108de5760405162461bcd60e51b815260040161060990611dec565b506001600160a01b031660009081526003602052604090205490565b610902610fce565b61090c600061117d565b565b6060600a805480602002602001604051908101604052809291908181526020016000905b82821015610a2b57838290600052602060002090600402016040518060a001604052908160008201805461096590611fb7565b80601f016020809104026020016040519081016040528092919081815260200182805461099190611fb7565b80156109de5780601f106109b3576101008083540402835291602001916109de565b820191906000526020600020905b8154815290600101906020018083116109c157829003601f168201915b50505091835250506001828101546020808401919091526002840154604084015260039093015460ff80821660608501526101009091041660809092019190915291835292019101610932565b50505050905090565b60606000610a41836108b6565b67ffffffffffffffff811115610a6757634e487b7160e01b600052604160045260246000fd5b604051908082528060200260200182016040528015610aa057816020015b610a8d6116fd565b815260200190600190039081610a855790505b5090506000805b600a54811015610c1d57846001600160a01b0316610ac482610867565b6001600160a01b03161415610c0b57600a8181548110610af457634e487b7160e01b600052603260045260246000fd5b90600052602060002090600402016040518060a0016040529081600082018054610b1d90611fb7565b80601f0160208091040260200160405190810160405280929190818152602001828054610b4990611fb7565b8015610b965780601f10610b6b57610100808354040283529160200191610b96565b820191906000526020600020905b815481529060010190602001808311610b7957829003601f168201915b5050509183525050600182015460208201526002820154604082015260039091015460ff8082166060840152610100909104166080909101528351849084908110610bf157634e487b7160e01b600052603260045260246000fd5b60200260200101819052508180610c0790611ff2565b9250505b80610c1581611ff2565b915050610aa7565b50909392505050565b6006546001600160a01b031690565b610c3d610fce565b600855565b60606001805461052090611fb7565b4790565b610772610c60610dc0565b83836111cf565b60095490565b610c7e610c78610dc0565b83610e32565b610c9a5760405162461bcd60e51b815260040161060990611c10565b610ca684848484611272565b50505050565b60085490565b3090565b6060610cc182610d9b565b6000610ccb6112a5565b90506000815111610ceb5760405180602001604052806000815250610d16565b80610cf5846112b7565b604051602001610d06929190611a7d565b6040516020818303038152906040525b9392505050565b6001600160a01b03918216600090815260056020908152604080832093909416825291909152205460ff1690565b610d53610fce565b6001600160a01b038116610d795760405162461bcd60e51b815260040161060990611caf565b6108b38161117d565b6001600160e01b031981166301ffc9a760e01b14919050565b610da481611362565b6108b35760405162461bcd60e51b815260040161060990611e9f565b3390565b600081815260046020526040902080546001600160a01b0319166001600160a01b0384169081179091558190610df982610867565b6001600160a01b03167f8c5be1e5ebec7d5bd14f71427d1e84f3dd0314c0f7b2291e5b200ac8c7c3b92560405160405180910390a45050565b600080610e3e83610867565b9050806001600160a01b0316846001600160a01b03161480610e655750610e658185610d1d565b80610e895750836001600160a01b0316610e7e846105a3565b6001600160a01b0316145b949350505050565b826001600160a01b0316610ea482610867565b6001600160a01b031614610eca5760405162461bcd60e51b815260040161060990611cf5565b6001600160a01b038216610ef05760405162461bcd60e51b815260040161060990611d71565b610efd8383836001610ca6565b826001600160a01b0316610f1082610867565b6001600160a01b031614610f365760405162461bcd60e51b815260040161060990611cf5565b600081815260046020908152604080832080546001600160a01b03199081169091556001600160a01b0387811680865260038552838620805460001901905590871680865283862080546001019055868652600290945282852080549092168417909155905184937fddf252ad1be2c89b69c2b068fc378daa952ba7f163c4a11628f55a4df523b3ef91a46106668383836001610ca6565b610fd6610dc0565b6001600160a01b0316610fe7610c26565b6001600160a01b03161461090c5760405162461bcd60e51b815260040161060990611e6a565b6000908152600260205260409020546001600160a01b031690565b6000611034606461137f565b90506000611048662386f26fc1000061137f565b6040805160a08101825285815260075460208083019190915291810183905260016060820181905260ff86166080830152600a80549182018155600052815180519495509193849360049092027fc65a7bb8d6351c1cf70c95a316cc6a92839c986682d98bc35f958f4883f9d2a801926110c6928492910190611732565b50602082015160018201556040820151600282015560608201516003909101805460809093015160ff9081166101000261ff00199190931660ff19909416939093179290921617905560075461111d9033906113b9565b336001600160a01b03167f24d2d558f98bdd9d21339e119fc0b03e213c7d05affd838ac2ee136d90e3bbeb6007548460405161115a929190611f7d565b60405180910390a26007805490600061117283611ff2565b919050555050505050565b600680546001600160a01b038381166001600160a01b0319831681179093556040519116919082907f8be0079c531659141344cd1fd0a4f28419497f9722a3daafe3b4186f6b6457e090600090a35050565b816001600160a01b0316836001600160a01b031614156112015760405162461bcd60e51b815260040161060990611db5565b6001600160a01b0383811660008181526005602090815260408083209487168084529490915290819020805460ff1916851515179055517f17307eab39ab6107e8899845ad3d59bd9653f200f220920489ca2b5937696c3190611265908590611bb8565b60405180910390a3505050565b61127d848484610e91565b611289848484846113d3565b610ca65760405162461bcd60e51b815260040161060990611c5d565b60408051602081019091526000815290565b606060006112c4836114ee565b600101905060008167ffffffffffffffff8111156112f257634e487b7160e01b600052604160045260246000fd5b6040519080825280601f01601f19166020018201604052801561131c576020820181803683370190505b5090508181016020015b600019016f181899199a1a9b1b9c1cb0b131b232b360811b600a86061a8153600a85049450846113555761135a565b611326565b509392505050565b60008061136e8361100d565b6001600160a01b0316141592915050565b6000804233604051602001611395929190611aac565b60408051601f1981840301815291905280516020909101209050610d16838261202d565b6107728282604051806020016040528060008152506115c6565b60006113e7846001600160a01b03166115f9565b156114e357836001600160a01b031663150b7a02611403610dc0565b8786866040518563ffffffff1660e01b81526004016114259493929190611ae0565b602060405180830381600087803b15801561143f57600080fd5b505af192505050801561146f575060408051601f3d908101601f1916820190925261146c918101906119d7565b60015b6114c9573d80801561149d576040519150601f19603f3d011682016040523d82523d6000602084013e6114a2565b606091505b5080516114c15760405162461bcd60e51b815260040161060990611c5d565b805181602001fd5b6001600160e01b031916630a85bd0160e11b149050610e89565b506001949350505050565b60008072184f03e93ff9f4daa797ed6e38ed64bf6a1f0160401b831061152d5772184f03e93ff9f4daa797ed6e38ed64bf6a1f0160401b830492506040015b6d04ee2d6d415b85acef81000000008310611559576d04ee2d6d415b85acef8100000000830492506020015b662386f26fc10000831061157757662386f26fc10000830492506010015b6305f5e100831061158f576305f5e100830492506008015b61271083106115a357612710830492506004015b606483106115b5576064830492506002015b600a83106105095760010192915050565b6115d08383611608565b6115dd60008484846113d3565b6106665760405162461bcd60e51b815260040161060990611c5d565b6001600160a01b03163b151590565b6001600160a01b03821661162e5760405162461bcd60e51b815260040161060990611e35565b61163781611362565b156116545760405162461bcd60e51b815260040161060990611d3a565b611662600083836001610ca6565b61166b81611362565b156116885760405162461bcd60e51b815260040161060990611d3a565b6001600160a01b038216600081815260036020908152604080832080546001019055848352600290915280822080546001600160a01b0319168417905551839291907fddf252ad1be2c89b69c2b068fc378daa952ba7f163c4a11628f55a4df523b3ef908290a4610772600083836001610ca6565b6040518060a00160405280606081526020016000815260200160008152602001600060ff168152602001600060ff1681525090565b82805461173e90611fb7565b90600052602060002090601f01602090048101928261176057600085556117a6565b82601f1061177957805160ff19168380011785556117a6565b828001600101855582156117a6579182015b828111156117a657825182559160200191906001019061178b565b506117b29291506117b6565b5090565b5b808211156117b257600081556001016117b7565b600067ffffffffffffffff808411156117e6576117e6612063565b604051601f8501601f19908116603f0116810190828211818310171561180e5761180e612063565b8160405280935085815286868601111561182757600080fd5b858560208301376000602087830101525050509392505050565b80356001600160a01b038116811461050c57600080fd5b600060208284031215611869578081fd5b610d1682611841565b60008060408385031215611884578081fd5b61188d83611841565b915061189b60208401611841565b90509250929050565b6000806000606084860312156118b8578081fd5b6118c184611841565b92506118cf60208501611841565b9150604084013590509250925092565b600080600080608085870312156118f4578081fd5b6118fd85611841565b935061190b60208601611841565b925060408501359150606085013567ffffffffffffffff81111561192d578182fd5b8501601f8101871361193d578182fd5b61194c878235602084016117cb565b91505092959194509250565b6000806040838503121561196a578182fd5b61197383611841565b915060208301358015158114611987578182fd5b809150509250929050565b600080604083850312156119a4578182fd5b6119ad83611841565b946020939093013593505050565b6000602082840312156119cc578081fd5b8135610d1681612079565b6000602082840312156119e8578081fd5b8151610d1681612079565b600060208284031215611a04578081fd5b813567ffffffffffffffff811115611a1a578182fd5b8201601f81018413611a2a578182fd5b610e89848235602084016117cb565b600060208284031215611a4a578081fd5b5035919050565b60008151808452611a69816020860160208601611f8b565b601f01601f19169290920160200192915050565b60008351611a8f818460208801611f8b565b835190830190611aa3818360208801611f8b565b01949350505050565b91825260601b6bffffffffffffffffffffffff1916602082015260340190565b6001600160a01b0391909116815260200190565b6001600160a01b0385811682528416602082015260408101839052608060608201819052600090611b1390830184611a51565b9695505050505050565b60208082528251828201819052600091906040908185019080840286018301878501865b83811015611baa57603f19898403018552815160a08151818652611b6782870182611a51565b838b0151878c0152898401518a88015260608085015160ff9081169189019190915260809485015116939096019290925250509386019390860190600101611b41565b509098975050505050505050565b901515815260200190565b600060208252610d166020830184611a51565b600060a08252611be960a0830188611a51565b602083019690965250604081019390935260ff918216606084015216608090910152919050565b6020808252602d908201527f4552433732313a2063616c6c6572206973206e6f7420746f6b656e206f776e6560408201526c1c881bdc88185c1c1c9bdd9959609a1b606082015260800190565b60208082526032908201527f4552433732313a207472616e7366657220746f206e6f6e20455243373231526560408201527131b2b4bb32b91034b6b83632b6b2b73a32b960711b606082015260800190565b60208082526026908201527f4f776e61626c653a206e6577206f776e657220697320746865207a65726f206160408201526564647265737360d01b606082015260800190565b60208082526025908201527f4552433732313a207472616e736665722066726f6d20696e636f72726563742060408201526437bbb732b960d91b606082015260800190565b6020808252601c908201527f4552433732313a20746f6b656e20616c7265616479206d696e74656400000000604082015260600190565b60208082526024908201527f4552433732313a207472616e7366657220746f20746865207a65726f206164646040820152637265737360e01b606082015260800190565b60208082526019908201527f4552433732313a20617070726f766520746f2063616c6c657200000000000000604082015260600190565b60208082526029908201527f4552433732313a2061646472657373207a65726f206973206e6f7420612076616040820152683634b21037bbb732b960b91b606082015260800190565b6020808252818101527f4552433732313a206d696e7420746f20746865207a65726f2061646472657373604082015260600190565b6020808252818101527f4f776e61626c653a2063616c6c6572206973206e6f7420746865206f776e6572604082015260600190565b60208082526018908201527f4552433732313a20696e76616c696420746f6b656e2049440000000000000000604082015260600190565b60208082526021908201527f4552433732313a20617070726f76616c20746f2063757272656e74206f776e656040820152603960f91b606082015260800190565b6020808252603d908201527f4552433732313a20617070726f76652063616c6c6572206973206e6f7420746f60408201527f6b656e206f776e6572206f7220617070726f76656420666f7220616c6c000000606082015260800190565b90815260200190565b918252602082015260400190565b60005b83811015611fa6578181015183820152602001611f8e565b83811115610ca65750506000910152565b600281046001821680611fcb57607f821691505b60208210811415611fec57634e487b7160e01b600052602260045260246000fd5b50919050565b60006000198214156120065761200661204d565b5060010190565b600060ff821660ff8114156120245761202461204d565b60010192915050565b60008261204857634e487b7160e01b81526012600452602481fd5b500690565b634e487b7160e01b600052601160045260246000fd5b634e487b7160e01b600052604160045260246000fd5b6001600160e01b0319811681146108b357600080fdfea2646970667358221220753e6e803f51fd6bd0f8603f881ecbc0e38e294273507bbc6b8877aa4593044164736f6c63430008010033",
  "immutableReferences": {},
  "source": "// SPDX-License-Identifier: MIT\npragma solidity ^0.8.0;\n\n// Importacin de los Smart Contract: ERC721.sol y Ownable.sol\nimport \"@openzeppelin/contracts/token/ERC721/ERC721.sol\";\nimport \"@openzeppelin/contracts/access/Ownable.sol\";\n\n// Creacin del Smart Contract para el Videojuego NFT\ncontract LipToken is ERC721, Ownable {\n\n    // Constructor de mi Smart Contract\n    constructor (string memory _name, string memory _symbol)\n    ERC721(_name, _symbol) {}\n\n    // ============================================\n    // Declaraciones iniciales\n\n    // Contador de tokens NFT\n    uint256 COUNTER;\n    // Fijacin en el precio de los Tokens NFT\n    uint256 fee = 0.01 ether;\n    // Fijacin del precio de level up\n    uint256 feeLevelUp = 0.0005 ether;\n    // Estructura de datos con las propiedades del lip (labio)\n    struct Lip {\n        string name;\n        uint256 id;\n        uint256 dna;\n        uint8 level;\n        uint8 rarity;\n    }\n    // Estructura de almacenamiento\n    Lip [] public lips;\n    // Declaracin de un evento \n    event NewLip(address indexed owner, uint256 id, uint256 dna);\n\n    // ============================================\n    // Funciones de ayuda \n\n    // Funcion que devuelve el valor del free\n    function getFeeValue() public view returns(uint256) {\n        return fee;\n    }\n\n    // Funcion que devuelve el valor del free level up\n    function getFeeLevelUpValue() public view returns(uint256) {\n        return feeLevelUp;\n    }\n\n    // Asignacin de un nmero aleatorio\n    function _createRandomNum(uint256 _mod) internal view returns(uint256) {\n        uint256 randomNum = uint256(keccak256(abi.encodePacked(block.timestamp, msg.sender)));\n        return randomNum % _mod; \n    }\n\n    // Actualizacin del precio del Token NFT\n    function updateFee(uint256 _fee) external onlyOwner {\n        fee = _fee;\n    }\n\n    // Extraccin de los ethers del Smart Contract hacia el Owner \n    function withdraw() external payable onlyOwner {\n        address payable _owner = payable(owner());\n        _owner.transfer(address(this).balance);\n    }\n\n    // Creacin del Token NFT (lip/labio)\n    function _createLip(string memory _name) internal {\n        uint8 randRarity = uint8(_createRandomNum(100));\n        uint randDna = _createRandomNum(10**16);\n        Lip memory newLip = Lip(_name, COUNTER, randDna, 1, randRarity);\n        lips.push(newLip);\n        _safeMint(msg.sender, COUNTER);\n        emit NewLip(msg.sender, COUNTER, randDna);\n        COUNTER++;\n    }\n\n    // ============================================\n    // Creacin de un labio aleatorio\n    function createRandomLip(string memory _name) public payable {\n        require(msg.value >= fee);\n        _createLip(_name);\n    }\n\n    // Obtencin de todos los lips (labios)\n    function getLips() public view returns(Lip [] memory) {\n        return lips;\n    }\n\n    // Visualizar el balance del Smart Contract \n    function moneySmartContract() public view returns(uint256){\n        return address(this).balance;\n    }\n\n    // Visualizar la direccin del Smart Contract\n    function addressSmartContract() public view returns(address) {\n        return address(this);\n    }\n\n    // Obtencin de los tokens NFT usuario\n    function getOwnerLips(address _owner) public view returns(Lip [] memory) {\n        Lip [] memory result = new Lip [] (balanceOf(_owner));\n        uint256 counter = 0;\n        for (uint256 i = 0; i <lips.length; i++) {\n            if (ownerOf(i) == _owner) {\n                result[counter] = lips[i];\n                counter++;\n            }\n        }\n        return result;\n    }\n\n    // Subir de nivel los tokens NFT \n    function levelUp(uint256 _lipId) public payable {\n        require(ownerOf(_lipId) == msg.sender);\n        Lip storage lip = lips[_lipId];\n        lip.level++;\n    }\n\n\n}",
  "sourcePath": "/home/alfy/Escritorio/blockchain_lips/bc_lips/contracts/LipToken.sol",
  "compiler": {
    "name": "solc",
    "version": "0.8.1+commit.df193b15.Emscripten.clang"
  },
  "schemaVersion": "3.4.14",
  "updatedAt": "2023-06-15T19:52:11.056Z",
  "networkType": "ethereum",
  "devdoc": {
    "kind": "dev",
    "methods": {
      "approve(address,uint256)": {
        "details": "See {IERC721-approve}."
      },
      "balanceOf(address)": {
        "details": "See {IERC721-balanceOf}."
      },
      "getApproved(uint256)": {
        "details": "See {IERC721-getApproved}."
      },
      "isApprovedForAll(address,address)": {
        "details": "See {IERC721-isApprovedForAll}."
      },
      "name()": {
        "details": "See {IERC721Metadata-name}."
      },
      "owner()": {
        "details": "Returns the address of the current owner."
      },
      "ownerOf(uint256)": {
        "details": "See {IERC721-ownerOf}."
      },
      "renounceOwnership()": {
        "details": "Leaves the contract without owner. It will not be possible to call `onlyOwner` functions. Can only be called by the current owner. NOTE: Renouncing ownership will leave the contract without an owner, thereby disabling any functionality that is only available to the owner."
      },
      "safeTransferFrom(address,address,uint256)": {
        "details": "See {IERC721-safeTransferFrom}."
      },
      "safeTransferFrom(address,address,uint256,bytes)": {
        "details": "See {IERC721-safeTransferFrom}."
      },
      "setApprovalForAll(address,bool)": {
        "details": "See {IERC721-setApprovalForAll}."
      },
      "supportsInterface(bytes4)": {
        "details": "See {IERC165-supportsInterface}."
      },
      "symbol()": {
        "details": "See {IERC721Metadata-symbol}."
      },
      "tokenURI(uint256)": {
        "details": "See {IERC721Metadata-tokenURI}."
      },
      "transferFrom(address,address,uint256)": {
        "details": "See {IERC721-transferFrom}."
      },
      "transferOwnership(address)": {
        "details": "Transfers ownership of the contract to a new account (`newOwner`). Can only be called by the current owner."
      }
    },
    "version": 1
  },
  "userdoc": {
    "kind": "user",
    "methods": {},
    "version": 1
  }
}